:1000000045C0000061C000005FC000005DC000008E
:100010005BC0000059C0000057C0000055C0000080
:1000200053C0000051C000004FC000004DC0000090
:100030004BC0000049C0000047C0000045C00000A0
:100040003AC4000041C000008BC000003DC0000069
:100050003BC0000039C0000037C0000035C00000C0
:1000600033C0000031C000002FC000002DC00000D0
:100070002BC0000029C0000027C0000025C00000E0
:1000800023C0000021C000001FC0000011241FBEBB
:10009000CFEFD0E1DEBFCDBF11E0A0E0B1E0EEEFE9
:1000A000F1E100E00BBF02C007900D92AA30B1074A
:1000B000D9F722E0AAE0B1E001C01D92A936B2074B
:1000C000E1F7C6D40C94FD089BCF2CB53DB5232B8E
:1000D000E1F325E535E545E051E40E949A0820E08A
:1000E00030E048E453E46FD63ED7673881E07807C4
:1000F00034F46A3071052CF46AE070E002C066E8FE
:1001000071E0CB01089690938500809384009BBD9D
:100110008ABD68507109709387006093860079BD2D
:1001200068BD0895CF9318BA88E842D683E440D6D4
:10013000C1E0C8BB18BA80E93BD680E039D6C8BB5D
:1001400018BA80E235D6C8BBCF91089597B1907F99
:10015000890F87B9369A349BFECF84B195B1089543
:100160001F920F920FB60F9211240BB60F928F931E
:10017000EF93FF93E091480281E08E0F8093480255
:10018000F0E08CB1EE5BFE4F8083FF91EF918F9199
:100190000F900BBE0F900FBE0F901F9018958F926F
:1001A0009F92AF92BF92CF92DF92EF92FF926091B7
:1001B0003E0170913F018091400190914101209159
:1001C0003A0130913B0140913C0150913D01FAD5FB
:1001D0006093320170933301809334019093350121
:1001E0008090320190903301A0903401B09035019D
:1001F0006091320170913301809134019091350109
:1002000020912E0130912F01409130015091310108
:10021000D9D52DEC3CEC4CEC5DE38CD72DEC3CECD3
:100220004CE45DE338D66B017C0123EC35EF48E408
:1002300051E4C501B4017ED79B01AC01C701B601F1
:10024000C2D560930A0170930B0180930C019093C7
:100250000D018091320190913301A0913401B09150
:10026000350180932E0190932F01A0933001B0931C
:10027000310160910A0170910B0180910C01909104
:100280000D01209105013091060140910701509127
:1002900008014CD788238CF08091050190910601CC
:1002A000A0910701B091080180930A0190930B017E
:1002B000A0930C01B0930D0127C08091050190918E
:1002C0000601A0910701B091080120910A01309127
:1002D0000B0140910C0150910D01BC01CD019058D2
:1002E00025D788238CF08091050190910601A0917B
:1002F0000701B0910801B05880930A0190930B0157
:10030000A0930C01B0930D0160910501709106015D
:1003100080910701909108012DEA3EEB40E254E400
:1003200005D718166CF48DEA9EEBA0E2B4E4809336
:10033000050190930601A0930701B09308011BC02B
:10034000609105017091060180910701909108016B
:100350002DEA3EEB40E254EC9AD5882364F48DEA12
:100360009EEBA0E2B4EC8093050190930601A0936C
:100370000701B0930801FF90EF90DF90CF90BF90FE
:10038000AF909F908F9008958F929F92AF92BF925F
:10039000CF92DF92EF92FF9260913A0170913B0110
:1003A00080913C0190913D012091360130913701BF
:1003B000409138015091390105D52BE037ED43EAE2
:1003C0005BE369D560932A0170932B0180932C0124
:1003D00090932D0180913A0190913B01A0913C01B5
:1003E000B0913D018093360190933701A09338017D
:1003F000B093390160910A0170910B0180910C0159
:1004000090910D0120912A0130912B0140912C01F6
:1004100050912D01D7D460932601709327018093CA
:100420002801909329018090260190902701A090A7
:100430002801B090290160912201709123018091DF
:1004400024019091250120E030E040E252E472D690
:100450002BE037ED43EA5BE36DD66B017C0124E1D1
:100460003EEA47E250E4C501B40164D69B01AC0109
:10047000C701B601A8D460930E0170930F01809359
:1004800010019093110160912601709127018091D4
:10049000280190912901209122013091230140915E
:1004A0002401509125018FD4609322017093230180
:1004B000809324019093250160910E0170910F01AA
:1004C0008091100190911101209101013091020160
:1004D000409103015091040129D688230CF43CC0BB
:1004E00060910E0170910F018091100190911101A6
:1004F00020910101309102014091030150910401CA
:10050000C0902201D0902301E0902401F0902501B9
:1005100059D42FE632E143EC5EE30CD69B01AC01EB
:10052000C701B6014FD460932201709323018093D9
:100530002401909325018091010190910201A091E5
:100540000301B091040180930E0190930F01A093D9
:100550001001B093110153C08091010190910201EB
:10056000A0910301B091040120910E0130910F017F
:100570004091100150911101BC01CD019058D6D588
:1005800088230CF43CC060910E0170910F018091A2
:1005900010019091110120910101309102014091CF
:1005A000030150910401C0902201D0902301E090FA
:1005B0002401F090250107D42FE632E143EC5EE3FD
:1005C000B9D59B01AC01C701B601FCD360932201F0
:1005D0007093230180932401909325018091010160
:1005E00090910201A0910301B0910401B058809351
:1005F0000E0190930F01A0931001B093110160912F
:10060000010170910201809103019091040128EB96
:100610003EE145E050E48AD518166CF488EB9EE183
:10062000A5E0B0E48093010190930201A09303013F
:10063000B09304011BC0609101017091020180918F
:1006400003019091040128EB3EE145E050EC1FD4FA
:10065000882364F488EB9EE1A5E0B0EC809301016F
:1006600090930201A0930301B0930401FF90EF90D7
:10067000DF90CF90BF90AF909F908F9008958F9212
:100680009F92AF92BF92CF92DF92EF92FF92CF9361
:10069000DF9360915F02709160028091610290919E
:1006A000620220E030E040E85AE344D520E030E048
:1006B00040EA50E43FD520E030E040E250E482D30D
:1006C00020E030E040E251E435D5DC01CB01B05808
:1006D00080931E0190931F01A0932001B0932101EC
:1006E00060910E0170910F018091100190911101A4
:1006F00020911E0130911F01409120015091210154
:1007000061D360931A0170931B0180931C01909335
:100710001D0160911A0170911B0180911C01909143
:100720001D018090160190901701A0901801B090C3
:10073000190126E436EB43E55FE3FCD46B017C0151
:100740002DEC3CEC4CEC5DE3C501B401F3D49B0112
:10075000AC01C701B60137D306D47093130160937F
:10076000120160912A0170912B0180912C019091CE
:100770002D01C0911201D09113012FED30EE4BE805
:100780005DE3D8D46B017C01BE01DD0F880B990BB2
:100790001DD49B01AC01C701B60115D3E4D37093FE
:1007A00013016093120160911A0170911B018091F5
:1007B0001C0190911D01209116013091170140916B
:1007C000180150911901FFD260931601709317011F
:1007D0008093180190931901809112019091130157
:1007E000489764F16091120170911301C090160155
:1007F000D0901701E0901801F0901901685171092B
:10080000072E000C880B990BE1D326E436EB43E569
:100810005FE341D39B01AC01C701B601D3D2609322
:10082000160170931701809318019093190188E1C4
:1008300090E0909313018093120132C080911201D5
:1008400090911301893E9F4F5CF560911201709168
:100850001301C0901601D0901701E0901801F0909C
:100860001901685E7F4F072E000C880B990BAED3E1
:1008700026E436EB43E55FE30ED39B01AC01C701F1
:10088000B601A0D2609316017093170180931801EE
:100890009093190188EE9FEF9093130180931201BA
:1008A000DF91CF91FF90EF90DF90CF90BF90AF900E
:1008B0009F908F9008951F920F920FB60F92112460
:1008C0000BB60F92CF92DF92EF92FF922F933F934E
:1008D0004F935F936F937F938F939F93AF93BF9348
:1008E000CF93EF93FF9383E882BFC1E0C5BB80E065
:1008F0002DDCBC01990F880B990B68D360935F02C4
:1009000070936002809361029093620218BA88EE3D
:100910004FD2C8BB18BA88E64BD24FD2C82ED12CC2
:10092000E12CF12CFE2CED2CDC2CCC2446D2C82A58
:10093000FE2CED2CDC2CCC2440D2C82AFE2CED2C35
:10094000DC2CCC243AD2C8BBC82AF094E094D094D2
:10095000C094C11CD11CE11CF11CC0926302D09256
:100960006402E0926502F092660283E085BB6091CA
:10097000630270916402809165029091660226D3B1
:1009800020E030E042EA58E486D29B01AC011BD261
:100990002BED3FE049E450E4CDD360933A017093EE
:1009A0003B0180933C0190933D0190915E0289E26E
:1009B000989F812D112482958F7024E6829F901933
:1009C0001124911103C0EBDB10925E0220915E02B4
:1009D0008DEC289F812D1124869586958695880F0C
:1009E000982F990F990F890F281301C0CDDC47DE8E
:1009F0006091120170911301072E000C880B990B66
:100A0000E5D263DB80915E028F5F80935E0280910E
:100A10001401909115010196909315018093140192
:100A2000FF91EF91CF91BF91AF919F918F917F9166
:100A30006F915F914F913F912F91FF90EF90DF90D9
:100A4000CF900F900BBE0F900FBE0F901F90189578
:100A5000CF93DF93CDB7DEB764970FB6F894DEBFC0
:100A60000FBECDBF8EEF8C838B838A83898347D162
:100A70008DD195D151D155D167D110928900109265
:100A800088001DBC1CBC60E070E0CB011EDB79D18E
:100A900049DB83E882BF7894B12C0F2EF4E19F2EBE
:100AA000F02D0F2EF3E0AF2EF02D7E0185E1E80E44
:100AB000F11C0F2EFAE4CF2EF2E0DF2EF02D689419
:100AC000772471F888248394BAC0809168028130B9
:100AD000E1F018F08230E1F1ADC0E0916702F0E0A2
:100AE000EE5BFE4F80818F3F69F4809149028F5FFA
:100AF0008093490280914902843009F09BC0809222
:100B0000680298C01092490295C0E091490281E0C4
:100B10008E0F80934902F0E0A0916702B0E0AE5BD7
:100B2000BE4F8C91E65BFD4F8083809149028830F7
:100B300009F080C0F601958180910001981303C0EF
:100B40007092680277C0109268021092490272C0D7
:100B5000E091490281E08E0F80934902F0E0A0917C
:100B60006702B0E0AE5BBE4F8C91E65BFD4F8083C9
:100B7000E0916702F0E0EE5BFE4F8081B80EF60177
:100B8000948180914902981344C08781B8123BC078
:100B900086818230C1F5608571858285938516D204
:100BA00020E030E04AE754E476D160933E01709350
:100BB0003F018093400190934101F6016485758562
:100BC0008685978503D220E030E04AE754E463D17C
:100BD00060930501709306018093070190930801CB
:100BE000F6016089718982899389F0D120E030E033
:100BF0004AE754E450D1609301017093020180935D
:100C00000301909304011092680210924902B12CE2
:100C100011C0F601948180914902981720F08091CB
:100C20004902853138F086E6BFD0109268021092F2
:100C30004902B12C809167028F5F80936702909187
:100C4000670280914802981340CF809114019091DF
:100C500015014497A4F3109215011092140180918C
:100C600000018E839D82AF82188660913A01709157
:100C70003B0180913C0190913D0120E030E04AE74A
:100C800054E458D270D169877A878B879C876091AA
:100C90002A0170912B0180912C0190912D0120E06F
:100CA00030E04AE754E446D25ED16D877E878F8775
:100CB000988B60911E0170911F018091200190918D
:100CC000210120E030E04AE754E434D24CD1698B72
:100CD0007A8B8B8B9C8BFE01399681919885890F3D
:100CE0008887EE15FF05C9F78E010F5F1F4FF801CA
:100CF00081918F0159D00E151F05C9F7A0CF8FEF35
:100D00008ABB84BB88E081BB87E687BB8AE182B966
:100D10001BBA87E088BB089584E083BF81E087BF6A
:100D2000089582EE8FBD81E18EBD8FE891E097BD81
:100D300086BD10927900109278001BBC1ABC19BCB9
:100D400018BC1DBC1CBC089582EB80938B0081E114
:100D500080938A008FE891E09093810080938000D7
:100D600010928300109282001092870010928600E9
:100D700010928500109284001092890010928800D1
:100D8000089580E487B986E886B908951BB888E994
:100D90008AB986E08093950087E689B9089580E551
:100DA0008DB981E08EB908955D9BFECF8CB9089511
:100DB0008FB9779BFECF8FB108951FB8779BFECF79
:100DC0008FB108955058BB27AA270ED075C166D1A0
:100DD00030F06BD120F031F49F3F11F41EF45BC171
:100DE0000EF4E095E7FB51C1E92F77D180F3BA17F4
:100DF000620773078407950718F071F49EF58FC199
:100E00000EF4E0950B2EBA2FA02D0B01B901900125
:100E10000C01CA01A0011124FF27591B99F0593F69
:100E200050F4503E68F11A16F040A22F232F342FB1
:100E30004427585FF3CF469537952795A795F040FF
:100E40005395C9F77EF41F16BA0B620B730B840B14
:100E5000BAF09150A1F0FF0FBB1F661F771F881FCC
:100E6000C2F70EC0BA0F621F731F841F48F4879524
:100E700077956795B795F7959E3F08F0B3CF939513
:100E8000880F08F09927EE0F979587950895D9D088
:100E900008F481E008950CD00FC107D140F0FED0D6
:100EA00030F021F45F3F19F0F0C0511139C1F3C0A7
:100EB00014D198F39923C9F35523B1F3951B550B1E
:100EC000BB27AA2762177307840738F09F5F5F4F1D
:100ED000220F331F441FAA1FA9F333D00E2E3AF05E
:100EE000E0E830D091505040E695001CCAF729D078
:100EF000FE2F27D0660F771F881FBB1F26173707C7
:100F00004807AB07B0E809F0BB0B802DBF01FF27F6
:100F100093585F4F2AF09E3F510568F0B6C000C15C
:100F20005F3FECF3983EDCF3869577956795B79530
:100F3000F7959F5FC9F7880F911D9695879597F94B
:100F40000895E1E0660F771F881FBB1F62177307C4
:100F50008407BA0720F0621B730B840BBA0BEE1FD9
:100F600088F7E095089504D06894B111D9C0089528
:100F7000BCD088F09F5790F0B92F9927B751A0F0B7
:100F8000D1F0660F771F881F991F1AF0BA95C9F71D
:100F900012C0B13081F0C3D0B1E00895C0C0672F56
:100FA000782F8827B85F39F0B93FCCF386957795CD
:100FB0006795B395D9F73EF49095809570956195B6
:100FC0007F4F8F4F9F4F0895E89409C097FB3EF4E1
:100FD00090958095709561957F4F8F4F9F4F992386
:100FE000A9F0F92F96E9BB279395F6958795779504
:100FF0006795B795F111F8CFFAF4BB0F11F460FFC4
:101000001BC06F5F7F4F8F4F9F4F16C0882311F01B
:1010100096E911C0772321F09EE8872F762F05C02F
:10102000662371F096E8862F70E060E02AF09A95CA
:10103000660F771F881FDAF7880F9695879597F9BF
:101040000895990F0008550FAA0BE0E8FEEF161659
:101050001706E807F907C0F012161306E407F507AC
:1010600098F0621B730B840B950B39F40A2661F020
:10107000232B242B252B21F408950A2609F4A140C3
:10108000A6958FEF811D811D089597F99F6780E8D0
:1010900070E060E008959FEF80EC089500240A94CA
:1010A0001616170618060906089500240A94121643
:1010B0001306140605060895092E0394000C11F476
:1010C000882352F0BB0F40F4BF2B11F460FF04C023
:1010D0006F5F7F4F8F4F9F4F089557FD9058440F7C
:1010E000551F59F05F3F71F04795880F97FB991F87
:1010F00061F09F3F79F08795089512161306140644
:10110000551FF2CF4695F1DF08C0161617061806D0
:10111000991FF1CF86957105610508940895E894AB
:10112000BB2766277727CB0197F908958ADF08F454
:101130008FEF08950BD0C0CFB1DF28F0B6DF18F0E5
:10114000952309F0A2CFA7CF1124EACFC6DFA0F3E1
:10115000959FD1F3950F50E0551F629FF001729F4C
:10116000BB27F00DB11D639FAA27F00DB11DAA1F6B
:10117000649F6627B00DA11D661F829F2227B00DB8
:10118000A11D621F739FB00DA11D621F839FA00D43
:10119000611D221F749F3327A00D611D231F849F93
:1011A000600D211D822F762F6A2F11249F575040EA
:1011B0008AF0E1F088234AF0EE0FFF1FBB1F661F85
:1011C000771F881F91505040A9F79E3F510570F03E
:1011D0005CCFA6CF5F3FECF3983EDCF38695779526
:1011E0006795B795F795E7959F5FC1F7FE2B880F39
:0E11F000911D9695879597F90895F894FFCF75
:0A11FE00010000803F0000803F0068
:00000001FF
